{"abi":[{"type":"function","name":"migrate","inputs":[{"name":"collateral","type":"address","internalType":"address"},{"name":"vault","type":"address","internalType":"address"},{"name":"onBehalfOf","type":"address","internalType":"address"},{"name":"amount","type":"uint256","internalType":"uint256"}],"outputs":[{"name":"","type":"uint256","internalType":"uint256"},{"name":"","type":"uint256","internalType":"uint256"}],"stateMutability":"nonpayable"},{"type":"error","name":"AddressEmptyCode","inputs":[{"name":"target","type":"address","internalType":"address"}]},{"type":"error","name":"AddressInsufficientBalance","inputs":[{"name":"account","type":"address","internalType":"address"}]},{"type":"error","name":"FailedInnerCall","inputs":[]},{"type":"error","name":"SafeERC20FailedOperation","inputs":[{"name":"token","type":"address","internalType":"address"}]}],"bytecode":{"object":"0x608080604052346015576105f7908161001a8239f35b5f80fdfe6080604090808252600480361015610015575f80fd5b5f915f3560e01c6334fcff0c1461002a575f80fd5b34610369576080366003190112610369576001600160a01b0382358181169081900361036957602490813591838316809303610369576044938435928184168403610369576064356323b872dd60e01b885233898901523084890152808789015260209788816064815f875af1801561045657610429575b50813b15610369578a5163f3fef3a360e01b8152308a82019081526020810192909252905f9082908190604001038183865af1801561041f576103f1575b508688918b51928380926338d52e0f60e01b82525afa9081156103ad5789916103b7575b50168851946370a0823160e01b8652308887015286868481855afa9586156103ad57899661037e575b508951636eb1769f60e11b8152308982015283810186905287818381865afa90811561037457918a93918c9897969593859161033b575b508711610203575b505085516311f9fbc960e21b81526001600160a01b03909316978301978852506020870193909352948592839182906040015b03925af19182156101f9578380936101be575b50508351928352820152f35b91925092508383813d83116101f2575b6101d88183610460565b810103126101ef5750808251920151905f806101b2565b80fd5b503d6101ce565b84513d85823e3d90fd5b919394959690925051928784019063095ea7b360e01b9283835287828701525f1981870152808652608086019267ffffffffffffffff938781108582111761032957918d8f9b9a9998969492819896949082918e5288519082895af16102676104ae565b816102f9575b50806102ef575b15610282575b50505061016c565b9193955091939597999a969851938b85015288828501528b8185015283526080830191838310908311176102dd575061019f989795938a936102cd8d9997946102d2948b52826104ed565b6104ed565b965f8080808061027a565b634e487b7160e01b5f90815260418752fd5b50843b1515610274565b8051801592508e908315610311575b5050505f61026d565b6103219350820181019101610496565b5f8d81610308565b8360418e634e487b7160e01b5f52525ffd5b94505096508783813d831161036d575b6103558183610460565b81010312610369578a96868b945190610164565b5f80fd5b503d61034b565b8b513d8c823e3d90fd5b9095508681813d83116103a6575b6103968183610460565b810103126103695751945f61012d565b503d61038c565b8a513d8b823e3d90fd5b90508681813d83116103ea575b6103ce8183610460565b810103126103e6575181811681036103e6575f610104565b8880fd5b503d6103c4565b90985067ffffffffffffffff811161040d5789525f97866100e0565b82604189634e487b7160e01b5f52525ffd5b8b513d5f823e3d90fd5b61044890893d8b1161044f575b6104408183610460565b810190610496565b505f6100a2565b503d610436565b8c513d5f823e3d90fd5b90601f8019910116810190811067ffffffffffffffff82111761048257604052565b634e487b7160e01b5f52604160045260245ffd5b90816020910312610369575180151581036103695790565b3d156104e8573d9067ffffffffffffffff821161048257604051916104dd601f8201601f191660200184610460565b82523d5f602084013e565b606090565b5f806105159260018060a01b03169360208151910182865af161050e6104ae565b908361055e565b8051908115159182610543575b505061052b5750565b60249060405190635274afe760e01b82526004820152fd5b6105569250602080918301019101610496565b155f80610522565b90610585575080511561057357805190602001fd5b604051630a12f52160e11b8152600490fd5b815115806105b8575b610596575090565b604051639996b31560e01b81526001600160a01b039091166004820152602490fd5b50803b1561058e56fea264697066735822122048c9897b2db9da29518b47e22b7cd00444bbf0588914a197b79b01852f465abf64736f6c63430008190033","linkReferences":{}},"methodIdentifiers":{"migrate(address,address,address,uint256)":"34fcff0c"},"id":136}